:100000000C94DE000C9406010C9406010C9406017D
:100010000C9406010C9406010C9406010C94060144
:100020000C9406010C9406010C94890D0C94FB0DA4
:100030000C9406010C9406010C9406010C94060124
:100040000C9406010C9406010C9406010C94060114
:100050000C9406010C9406010C9406010C946A1190
:100060000C9406010C94CD100C94A7100C9406016E
:100070000C9406010C9406010C9406010C940601E4
:100080000C942B100C9406010C9406010C940601A0
:100090000C9463080C9406010C9406010C94060160
:1000A0000C9406010C9406010C940601100613062C
:1000B000020606060A0634063406340617061B0630
:1000C0001F062506290634062F0600000002000937
:1000D0000F0000030401000C0000000000000000FD
:1000E00000000000000000000000000025002800C3
:1000F0002B002E00310000000000240027002A0001
:100100002D0030000404040404030405020202026A
:1001100004030202020206060606060604040202A0
:100120000204040408020110408040102040804076
:10013000800802040180402010020110801020403D
:10014000402003080B000202020100090400000124
:10015000020200000524001001052401010104240D
:10016000020605240600010705810310004009046A
:100170000100020A00000007050202400000070516
:1001800083024000000403090412010002EF02018F
:10019000404F1B0692000101020301537061726B14
:1001A00046756E00537061726B46756E2050726FAB
:1001B000204D6963726F0000A71F612011241FBECC
:1001C000CFEFDAE0DEBFCDBF26E0ACEDB1E001C09D
:1001D0001D92A83AB207E1F711E0A0E0B1E0E0E833
:1001E000F6E402C005900D92AC3DB107D9F710E0DE
:1001F000CDEDD0E004C02197FE010E942121CC3D2D
:10020000D107C9F70E94B4110C9433230C94000059
:10021000382F2091CE0490914906213208F049C030
:100220008091AB048111FCCF42E04093AB0430934A
:10023000AA043FEF3093A9041092A8042093A704C6
:10024000AEEAB4E047E854E0FA013E2F341B32171F
:1002500018F43D913193F9CF1092860420918604D1
:10026000990F922B9093860490918504913061F4BC
:1002700010928504909186049093BB009091BC00ED
:1002800093FDF8CF95EC01C095EE9093BC00909152
:10029000AB049230E1F39091A9049F3F79F08091F3
:1002A000A904803241F08091A904803331F084E0C8
:1002B00005C081E003C082E001C083E01092AD047C
:1002C0001092CE041092AC04089590918404906230
:1002D00021E02093AC04909349061092AD04109253
:1002E000CE04682F8CEB95E00E94440781E00E94C9
:1002F0000801809184049091AB049111FCCF91E0AE
:100300009093AB049093AA042FEF2093A90410922A
:10031000A8041092A70490938604909186048062AA
:10032000880F892B8093860480918504813061F445
:1003300010928504809186048093BB008091BC005C
:1003400083FDF8CF85EC01C085EE8093BC008091E1
:10035000AB048130E1F38091A804811103C0809146
:10036000A80401C081E0A7E8B4E024E634E0F90184
:100370009E2F921B981718F49D919193F9CF10928C
:100380006304809362048CEB95E00E94F806089564
:1003900060EC71E08CE695E00C949010CF93DF93C5
:1003A000BC018CE695E00E949010EC010E94C8010F
:1003B0008C0F9D1FDF91CF910895682F8FEC94E0F3
:1003C0000C94E00CCF93C62F90918404906221E0AE
:1003D0002093AC04909349061092AD041092CE0481
:1003E000682F8CEB95E00E9444076C2F8CEB95E016
:1003F0000E94440781E0CF910C9408010F931F9352
:10040000CF93DF931F92CDB7DEB7082F182F177049
:10041000883010F085E101C084E169830E946501A4
:100420006981662371F041E050E060E070E004C053
:10043000440F551F661F771F1A95D2F7682F642B3C
:100440000EC041E050E060E070E004C0440F551F72
:10045000661F771F1A95D2F74095682F64230830DE
:1004600010F083E101C082E10F90DF91CF911F91E5
:100470000F910C94E201CF93C82FC770883010F011
:1004800083E101C082E10E94650190E002C0959580
:100490008795CA95E2F78170CF91089590E0FC01AD
:1004A000ED5DFE4F2491FC01EC5FFE4F84918823AB
:1004B00099F090E0880F991FFC01EA50FF4FA59139
:1004C000B491FC01E851FF4F859194918FB7F89456
:1004D000EC91E22BEC938FBF08958F929F92AF9295
:1004E000BF92CF92DF92EF92FF92CF9320910301C0
:1004F000253021F02F3F09F037C204C0E2E4F1E0DB
:10050000C4919BC025E020930301E2E4F1E0C49193
:10051000CF3F09F429C2C13009F449C0FCF4C1112C
:100520008CC014BC15BC24B5226024BD25B5216047
:1005300025BDE9E0F1E0E491F0E0EE0FFF1FE851A6
:10054000FF4F2591349130933C0620933B06E8E21F
:10055000F1E0E491E0933A06C0E071C0C33009F4E1
:1005600049C0C43009F069C01092C0001092C100A7
:100570002091C10028602093C1002091C10021601A
:100580002093C100E9E0F1E0E491F0E0EE0FFF1FFD
:10059000E851FF4F2591349130933606209335066C
:1005A000E8E2F1E0E491E0933406C4E048C0109240
:1005B00080001092810020918100286020938100AA
:1005C00020918100216020938100E9E0F1E0E49135
:1005D000F0E0EE0FFF1FE851FF4F2591349130936B
:1005E000390620933806E8E2F1E0E491E09337061B
:1005F000C1E025C0109290001092910020919100CE
:100600002860209391002091910021602093910017
:10061000E9E0F1E0E491F0E0EE0FFF1FE851FF4F59
:100620002591349130935D0420935C04E8E2F1E07D
:10063000E491E0935B04C3E002C0C7FD95C16C0187
:1006400085E00E944E02E12CF12C8C2F8D7F09F069
:10065000B8C060E072E18AE790E0A70196010E94CD
:10066000022149015A01BA01A90141505109610908
:1006700071094F3F51056105710509F008F444C047
:1006800060E472E48FE090E0A70196010E940221ED
:10069000BA01A9014150510961097109C230E1F45F
:1006A0004F3F51056105710509F008F45DC160E92E
:1006B00070ED83E090E0A70196010E940221BA014B
:1006C000A90141505109610971094F3F5105610567
:1006D000710509F000F548C14F3F510561057105ED
:1006E000A9F0A0F068E478EE81E090E0A70196011F
:1006F0000E940221BA01A901415051096109710901
:10070000CC2309F403C1F9C081E001C082E0CC230D
:1007100009F452C096C068E478EE81E090E0A70149
:1007200096010E940221BA01A901415051096109B3
:1007300071094F3F51056105710509F008F414C1B5
:1007400064E274EF80E090E0A70196010E9402212C
:10075000BA01A90141505109610971094F3F510581
:100760006105710509F008F4FFC062E17AE780E0F5
:1007700090E0A70196010E940221BA01A90141500F
:100780005109610971094F3F51056105710509F072
:1007900008F4B1C0D501C4013AE0B595A795979585
:1007A00087953A95D1F7AC01BD01415051096109D6
:1007B0007109C11146C085E095B5987F892B85BD2B
:1007C0004BC060E072E18AE790E0A70196010E94C9
:1007D0000221BA01A901415051096109710941156C
:1007E000510581E06807710580F068E478EE81E0EA
:1007F00090E0A70196010E940221BA01A90141508F
:1008000051096109710983E001C081E0C13039F407
:1008100090918100987F892B809381002FC0C330F5
:1008200039F490919100987F892B809391003BC07F
:10083000C43039F49091C100987F892B8093C10016
:1008400047C0C130D9F01CF4CC2331F08DC0C33087
:1008500051F1C430E9F188C047BD8FEF9FEFDC0153
:100860008093450690934606A0934706B0934806AA
:1008700080916E00826080936E0076C050938900F4
:10088000409388008FEF9FEFDC01809341069093A7
:100890004206A0934306B093440680916F008260A5
:1008A00080936F0061C050939900409398008FEF40
:1008B0009FEFDC0180935E0490935F04A09360043B
:1008C000B0936104809171008260809371004CC08C
:1008D0004093CF008FEF9FEFDC0180933D06909314
:1008E0003E06A0933F06B09340068091720080645C
:1008F0008093720039C086E00ACF4F3F51056105F1
:10090000710511F008F031CF84E001CF4F3F510560
:1009100061057105B9F0B0F062E17AE780E090E03E
:10092000A70196010E940221BA01A9014150510973
:10093000610971094F3F51056105710509F020F406
:1009400084E03ACF83E038CFD501C4012AE0B595E1
:10095000A795979587952A95D1F7AC01BD01415090
:1009600051096109710927CFCF91FF90EF90DF9076
:10097000CF90BF90AF909F908F900895E0916C05BD
:10098000F0916D050190F081E02D682F8CE695E0E7
:1009900009948F929F92AF92BF92CF92DF92EF9283
:1009A000FF920F931F93CF93DF93CDB7DEB7A1973D
:1009B0000FB6F894DEBF0FBECDBF6C01990FEE08E5
:1009C000FF08F7FE2BC08DE20E94BE048C01222797
:1009D0003327A9012C193D094E095F0919A2CE013F
:1009E00081967C019AE0892E912CA12CB12CCA0110
:1009F000B901A50194010E94E020605DF7016293B6
:100A00007F01211531054105510589F7BF018CE6AC
:100A100095E00E949010800F911F1FC0A7019601C2
:100A200019A28E010F5D1F4F8AE0C82ED12CE12C38
:100A3000F12CCA01B901A70196010E94E020605D76
:100A4000F80162938F01211531054105510589F7A0
:100A5000BF018CE695E00E949010A1960FB6F89425
:100A6000DEBF0FBECDBFDF91CF911F910F91FF90E1
:100A7000EF90DF90CF90BF90AF909F908F900895B0
:100A8000CF93DF93C82F883010F0DDE001C0DCE0A9
:100A90008D2F0E946501C77041E050E060E070E07A
:100AA00004C0440F551F661F771FCA95D2F7682FE1
:100AB000642B8D2FDF91CF910C94E2010F931F9344
:100AC000CF93DF931F92CDB7DEB711E0883008F4E3
:100AD00010E0082F0770812F69830E9465016981EA
:100AE00061110EC041E050E060E070E004C0440FCE
:100AF000551F661F771F0A95D2F7682F642B0EC00B
:100B000041E050E060E070E004C0440F551F661FF4
:100B1000771F0A95D2F74095682F6423812F0F9095
:100B2000DF91CF911F910F910C94E201FC01809114
:100B30005A04811103C08FEF9FEF08959FB7F89477
:100B400082E08093E9002091F20030E01216130653
:100B500014F421E030E02115310559F0289884E69D
:100B6000809359048091F10080838091F200882362
:100B700019F09FBFC90108958BE68093E800F9CF73
:100B80002FB7F89483E08093E9009091E800892FD3
:100B9000807295FF04C09091F20080E4891B2FBF02
:100BA000089580912C0681110DC082E08093280663
:100BB00084E08093290610922B0610922A0681E089
:100BC00080932C0688E296E00895362F90E0FC0191
:100BD000E653FF4F4491FC01ED5DFE4F2491FC0173
:100BE000EC5FFE4F8491882309F451C04423E1F166
:100BF00050E0FA013197EF30F105B0F5EA5AFF4FB6
:100C00000C942121909180009F7707C090918000E3
:100C10009F7D03C090918000977F9093800024C0B7
:100C200094B59F7702C094B59F7D94BD1DC09091EF
:100C300090009F7707C0909190009F7D03C0909196
:100C40009000977F909390000FC09091C0009F7785
:100C500003C09091C0009F7D9093C00005C090910B
:100C6000C200977F9093C200E82FF0E0EE0FFF1FC5
:100C7000E851FF4FA591B4918FB7F894EC913111E1
:100C800003C020952E2301C02E2B2C938FBF0895D7
:100C900080910301853009F5E2E4F1E0E4918FEF02
:100CA00080930301E13071F050F0E33089F0E430DB
:100CB000A1F4809172008F7B809372000EC010921D
:100CC0006E000BC080916F008D7F80936F0005C018
:100CD000809171008D7F8093710060E085E00C94BD
:100CE000E50580E090E0892B29F00E94A20C81119B
:100CF0000C9400000895CF93DF931F92CDB7DEB719
:100D00006983DC01ED91FC910280F381E02D41E0EB
:100D100050E0BE016F5F7F4F09950F90DF91CF913B
:100D2000089583E08093E9008091F200882319F010
:100D30008AE38093E8000895FC018485958597FDFA
:100D40000BC09FB7F89482E08093E9008091F20095
:100D50009FBF90E0019608959FB7F89482E080933A
:100D6000E9008091F2009FBF90E0089585ED8093A7
:100D7000BC008091BC0084FDFCCF1092AB040895B0
:100D800040917106262F30E0240F311D21323105AC
:100D9000DCF42091AB042430C9F4FC0180E090E045
:100DA000861758F4309171062191DC01A15BB94F8F
:100DB000A30FB11D2C930196F3CF80917106680F9C
:100DC0006093710680E0089581E0089582E00895BF
:100DD0000895E091630480916204E81730F4F0E034
:100DE000EC59FB4F808190E008958FEF9FEF0895BD
:100DF0009091630480916204981750F4E92FF0E019
:100E0000EC59FB4F208130E09F5F9093630402C058
:100E10002FEF3FEFC90108958091620490E0209187
:100E20006304821B91090895CF92DF92EF92FF92A3
:100E30000F931F93CF93DF937C01262F972F8A0167
:100E40008091AC04882391F0C62FD72F6E01C40E79
:100E5000D51ECC15DD0571F06991D701ED91FC919E
:100E60000190F081E02DC7010995F3CF642F822F07
:100E70000E94C006C801DF91CF911F910F91FF9092
:100E8000EF90DF90CF900895CF93DF931F92CDB76F
:100E9000DEB769832091AC042223D1F02091CE04E7
:100EA000203240F021E030E0FC013383228380E0F7
:100EB00090E015C08091AD04E82FF0E0E255FB4FC3
:100EC000998190838F5F8093AD048093CE0405C099
:100ED00061E0CE0101960E94C00681E090E00F9093
:100EE000DF91CF910895089580E090E008958F926A
:100EF0009F92AF92BF92CF92DF92EF92FF920F93A9
:100F00001F93CF93DF935C016B017A0180910F01F6
:100F1000882309F45BC080915A04882309F456C0E1
:100F20008091DD0180FF05C08091E00082608093A8
:100F3000E000E70110E00AEF83E0882E9AE3992EA3
:100F40002097D9F10E94C00581110AC0015009F40F
:100F50003DC061E070E080E090E00E942411F0CF9D
:100F6000282F30E0C217D3070CF48C2F4FB7F8941A
:100F70008092E9009091E80095FF1DC0282F30E095
:100F8000C21BD30BF601982F915020F081918093D2
:100F9000F100FACFC20ED31E112319F09092E8008F
:100FA00009C08091E80085FD06C09092E80011E03C
:100FB000209709F010E04FBFC3CF1111C3CF5D9848
:100FC00084E6809396061E141F0444F081E090E0AE
:100FD000F5019383828380E090E001C0C701DF9137
:100FE000CF911F910F91FF90EF90DF90CF90BF9026
:100FF000AF909F908F9008950E94C00590E0089553
:10100000CF93DF931F92CDB7DEB7FC018485958522
:1010100097FD05C02FEF3FEF358724870BC0CE012A
:1010200001960E949605019719F4898190E002C00B
:101030008FEF9FEF0F90DF91CF9108950F931F9344
:10104000CF93DF931F92CDB7DEB78C01FC0184856F
:10105000958597FF0EC0CE0101960E9496050197D7
:1010600019F4298130E002C02FEF3FEFF8013587F6
:101070002487F801848595850F90DF91CF911F918A
:101080000F910895FC01848DDF01A80FB11DA35AB3
:10109000BF4F2C91848D90E001968F739927848F98
:1010A000A689B7892C93A089B1898C9180648C938F
:1010B000938D848D981306C00288F389E02D80817A
:1010C0008F7D808308951F920F920FB60F92112487
:1010D0002F933F934F935F936F937F938F939F9340
:1010E000AF93BF93EF93FF938091B900887F8036D1
:1010F00009F49CC068F5883209F45BC090F4803133
:1011000009F454C038F4882309F4F6C0883009F48F
:101110004DC0F6C0883109F44CC0803209F45DC07E
:10112000EFC0803409F468C048F4803309F455C036
:10113000883309F0E5C08093A904D8C0803509F44C
:101140004FC0883509F45DC0883409F0D9C0D6C0D5
:10115000883909F4C7C0A8F4883709F467C038F49F
:10116000883609F463C0803709F460C0C9C0883884
:1011700009F4B8C0803909F45FC0803809F0C0C0F4
:101180005BC0803B09F486C038F4803A09F466C03D
:10119000883A09F47FC0B4C0803C09F4A7C0883CF9
:1011A00009F4A4C0883B09F48AC0AAC080918604CF
:1011B00010C09091A8048091A704981770F5E09151
:1011C000A80481E08E0F8093A804F0E0E957FB4F5C
:1011D00080818093BB0085EC86C08093A9048EC07B
:1011E000E091A80481E08E0F8093A8048091BB0059
:1011F000F0E0E957FB4F80839091A8048091A70409
:101200006EC0E091A80481E08E0F8093A8048091C5
:10121000BB00F0E0E957FB4F80838091AA04811165
:101220006DC081E08093850484EA61C083E080938F
:10123000AB0410929506CFCF80919506803208F0CE
:1012400051C0E091950681E08E0F809395068091C4
:10125000BB00F0E0EB58F94F8083BDCF85EC809365
:10126000BC001092AB0480919506803230F4E0917E
:101270009506F0E0EB58F94F10826091950670E00A
:10128000E0917306F091740685E796E00995109257
:10129000950636C084E08093AB04109272061092DB
:1012A0007106E0916F06F0917006099580917106C4
:1012B000811105C081E08093710610924F06E09184
:1012C000720681E08E0F80937206F0E0E15BF94FC9
:1012D00080818093BB00909172068091710698176F
:1012E00008F479CF85E88093BC000AC085EC809330
:1012F000BC001092AB0404C01092A9040E94B60670
:10130000FF91EF91BF91AF919F918F917F916F91DD
:101310005F914F913F912F910F900FBE0F901F90B3
:101320001895CF93DF93FC0180818D3459F5EB0143
:101330008881843439F484E68093100383EC91E04F
:101340000E94CE0188818B3439F48BE680931003A0
:1013500089EC91E00E94CE0188818D3439F48DE6CC
:10136000809310038FEC91E00E94CE018881843538
:1013700049F484E78093100385ED91E0DF91CF91EC
:101380000C94CE01DF91CF910895CF93DF93CDB729
:10139000DEB728970FB6F894DEBF0FBECDBF98E03A
:1013A000E6E8F1E0DE01119601900D929A95E1F7E1
:1013B000E1E0F0E0EC0FFD1FE80FF11DE08186E0B9
:1013C000E89FF0011124E152FD4F8281811104C098
:1013D0008581882371F008C0813071F48581811185
:1013E0000EC088EE93E00FC0813031F480ED97E0BD
:1013F0000AC080EA9FE007C080E090E004C081302E
:10140000D9F784EF91E028960FB6F894DEBF0FBEAF
:10141000CDBFDF91CF910895CF93DF93CDB7DEB7E6
:1014200028970FB6F894DEBF0FBECDBF98E0E6E870
:10143000F1E0DE01119601900D929A95E1F7E1E05D
:10144000F0E0EC0FFD1FE80FF11DE0812E2F30E0E2
:1014500086E0E89FF0011124E152FD4F8081811167
:101460000BC081818130B1F4838181111FC08481DF
:1014700081111CC083E41BC08130B1F481818111D2
:1014800013C08381811143C08481813009F03FC042
:1014900081E43EC0811108C08381811118C084811C
:1014A0008130A9F485E414C080E041C080E096E07A
:1014B000929FF001939FF00D1124E152FD4F938113
:1014C0009130A9F59481911132C084E430C080E05C
:1014D00096E0929FF001939FF00D1124E152FD4F91
:1014E0009381911104C09481911101C086E496E02A
:1014F000929FF001939FF00D1124E152FD4F9381D3
:101500009130A9F49481911112C087E410C080E059
:1015100096E0929FF001939FF00D1124E152FD4F50
:101520009381911104C09481911101C082E42896A5
:101530000FB6F894DEBF0FBECDBFDF91CF910895F7
:10154000CF93DF93CDB7DEB728970FB6F894DEBF01
:101550000FBECDBF98E0E6E8F1E0DE011196019004
:101560000D929A95E1F7E1E0F0E0EC0FFD1FE80F36
:10157000F11D408186E0489FA001112420E030E069
:1015800081E090E0F901E40FF51FE152FD4F608129
:10159000662339F0880F2F5F3F4F2630310591F7D2
:1015A00002C0980FF7CF992359F0E0E4F2E081E60A
:1015B0002191291731F08F5F8B37D1F780E001C07F
:1015C00080E228960FB6F894DEBF0FBECDBFDF9144
:1015D000CF910895CF93FC018081823479F4C0E0EB
:1015E0008C2F0E94A00A0E94BE04CF5FC830C1F7B2
:1015F0006DE08CE695E0CF910C947B06CF91089539
:101600008F929F92BF92CF92DF92EF92FF920F93B1
:101610001F93CF93DF9300E411E0C0E0DFEF86E09B
:10162000C82EBB24B394C801805491404C01F801EA
:10163000D1908F0160E08D2D0E94FE0110920F036A
:10164000C89C7001C99CF00C1124E0910F03E63096
:10165000F0F4F0E0E65CFE4F80810E943B02909146
:101660000F03F701E90FF11DE152FD4F811105C094
:101670008081811108C0B08206C08081813019F458
:101680001082DC2FD90F9F5F90930F03DECF61E0B4
:101690008D2D0E94FE01C85FC03429F68D2FDF9189
:1016A000CF911F910F91FF90EF90DF90CF90BF905F
:1016B0009F908F9008951F93CF93DF93CDB7DEB7A0
:1016C00028970FB6F894DEBF0FBECDBF182F98E055
:1016D000E6E8F1E0DE01119601900D929A95E1F7AE
:1016E0000E94000BE1E0F0E0EC0FFD1FE10FF11DA7
:1016F000408186E0489FA001112420E030E091E085
:1017000080E0F901E40FF51FE152FD4F608166238F
:1017100081F0990F2F5F3F4F2630310591F72896C2
:101720000FB6F894DEBF0FBECDBFDF91CF911F91F2
:101730000895890FEECF4091990650919A06209115
:1017400097063091980642175307B4F49091E80039
:101750009570E1F39091E80092FD19C08093F1003B
:101760008091990690919A0601968F739927892BFB
:1017700019F48EEF8093E8008091990690919A0673
:10178000019690939A068093990681E0089580E0EF
:101790000895CF92DF92EF92FF920F931F93CF9312
:1017A000DF931F92CDB7DEB7182F062FE42E862FBA
:1017B000880F8E5F99830E949B0B83E00E949B0B96
:1017C000F12EC12E9981D92E8C2D8F19801798F466
:1017D000F601E7FE02C0849101C080810E949B0B4C
:1017E000182F80E00E949B0B8123FFEFCF1ADF0AA6
:1017F0008111EACF01C081E00F90DF91CF911F915D
:101800000F91FF90EF90DF90CF900895DF92EF92CD
:10181000FF920F931F93CF93DF93D82E8A017B0102
:10182000E40EF51EEB01CE15DF0571F0D7FE03C007
:10183000FE01849101C088810E949B0B2196811139
:10184000F2CF8FEF9FEF01C0C801DF91CF911F91C1
:101850000F91FF90EF90DF900895615030F020914C
:10186000F100FC0120830196F8CF289884E680934C
:1018700059040895CF92DF92EF92FF920F931F9336
:10188000CF93DF936C017A018B01C0E0D0E0CE15DD
:10189000DF0589F0D8016D918D01D601ED91FC91A4
:1018A0000190F081E02DC6010995892B11F47E018C
:1018B00002C02196ECCFC701DF91CF911F910F910C
:1018C000FF90EF90DF90CF900895FC01538D448DF1
:1018D000252F30E0842F90E0821B930B541710F0DB
:1018E000CF96089501970895FC01918D828D9817E8
:1018F00061F0828DDF01A80FB11D5D968C91928DF4
:101900009F5F9F73928F90E008958FEF9FEF0895F0
:10191000FC01918D828D981731F0828DE80FF11DB9
:10192000858D90E008958FEF9FEF0895FC01918DD4
:10193000228D892F90E0805C9F4F821B91098F73CD
:10194000992708958FEC94E00E94960C21E0892B52
:1019500009F420E0822F08950E941E230F931F9305
:10196000CF93DF931F92CDB7DEB782E0898342E445
:1019700050E063E471E080E80E94060C0E94D1050B
:10198000DC0112960D911C9113970115110569F058
:10199000D801ED91FC910280F381E02DBE016F5FD3
:1019A0007F4FC801099597FF07C089810F90DF918C
:1019B000CF911F910F910895F80100851185E5CF12
:1019C000EF92FF920F931F93CF93DF93EC0181E08F
:1019D000888F9B8D8C8D981305C0E889F98980814B
:1019E00085FD24C0F62E0B8D10E00F5F1F4F0F7387
:1019F0001127E02E8C8DE8120CC00FB607FCFACF31
:101A0000E889F989808185FFF5CFCE010E944208DF
:101A1000F1CF8B8DFE01E80FF11DE35AFF4FF082ED
:101A20000B8FEA89FB898081806207C0EE89FF897C
:101A30006083E889F98980818064808381E090E017
:101A4000DF91CF911F910F91FF90EF900895CF9369
:101A5000DF93EC01888D8823C9F0EA89FB898081B6
:101A600085FD05C0A889B9898C9186FD0FC00FB688
:101A700007FCF5CF808185FFF2CFA889B9898C91C9
:101A800085FFEDCFCE010E944208E7CFDF91CF91D5
:101A90000895EF92FF920F931F93CF93DF93EC0182
:101AA0007B018A0188819981009729F02A813B81F5
:101AB00024173507F8F4B8016F5F7F4F0E94542256
:101AC000009759F0998388831B830A832C813D8179
:101AD000232B81F4FC0110820DC08881998100972D
:101AE00011F00E94BC21198218821D821C821B8267
:101AF0001A8207C01D830C83B701888199810E94D7
:101B00002C23CE01DF91CF911F910F91FF90EF9089
:101B100008951F920F920FB60F9211248F939F93E7
:101B20008091E1009091E100937F9093E10083FF29
:101B30000FC01092E90091E09093EB001092EC003E
:101B400092E39093ED0010925A0498E09093F00085
:101B500082FF20C093E09093E9009091F2009923D6
:101B600019F09AE39093E80090919606992339F042
:101B700090919606915090939606992389F19091B1
:101B80005904992339F09091590491509093590434
:101B9000992341F184FF10C08091E2008E7E816024
:101BA0008093E2008091E1008F7E8093E10080913C
:101BB000DD018E7E806111C080FF16C08091E20041
:101BC0008E7E80618093E2008091E1008E7E809322
:101BD000E1008091DD018E7E81608093DD0104C093
:101BE0005D9ACDCF289AD6CF9F918F910F900FBE3F
:101BF0000F901F9018951F920F920FB60F921124FD
:101C0000CF92DF92EF92FF920F931F932F933F9308
:101C10004F935F936F937F938F939F93AF93BF93F4
:101C2000EF93FF93CF93DF93CDB7DEB76C97DEBF13
:101C3000CDBF1092E9008091E80083FFEDC168E01C
:101C4000CE0145960E942D0C82EF8093E8008D898D
:101C500087FF05C09091E80090FFFCCF03C09EEF86
:101C60009093E800982F907609F0C6C09E892F893E
:101C7000188D91110CC0803829F48091DE01809379
:101C8000F10002C01092F1001092F10048C1422F01
:101C900050E0512B913051F4811141C14130510537
:101CA00009F03DC18091DE018D7F0BC0933061F45E
:101CB000811135C14130510509F031C18091DE01FA
:101CC00082608093DE012BC1953041F48091E80061
:101CD00080FFFCCF20682093E30021C1963009F0FB
:101CE0005FC0EB8CFC8C1092E90010929A06109267
:101CF0009906123091F510929806109297060E945C
:101D0000AE0C99E0BE016F5F7F4FDB01E92F1D92A2
:101D1000EA95E9F799831A8391E09E8390EA988780
:101D20009AEF99872091990630919A06275F3F4F45
:101D30003C832B838D831092E90010929A061092B7
:101D40009906F0929806E092970649E050E080E00C
:101D50000E94060C0E94AE0CE2C0F0929806E0923F
:101D600097060E94D105DC011296ED90FC90139726
:101D7000E114F10409F4C0C0D701ED91FC91048095
:101D8000F581E02DBE016B5E7F4FC701099500977D
:101D900019F00CF0C4C0C7C0F701E084F184E8CFAB
:101DA000973009F4C0C0983021F481E08093F100AD
:101DB000B6C0993009F0B3C0837009F0B4C0EFE841
:101DC000F1E081E021E036E39081992361F0809396
:101DD000E9002093EB0091919093EC003093ED009B
:101DE0008F5F873089F78EE78093EA001092EA00D0
:101DF0008F8980935A0493C08B8D9C8D1092E9003B
:101E000010929A06109299069093980680939706DE
:101E1000898D811156C08E899D89913A59F48132FC
:101E200009F081C047E050E068E071E080E00E9486
:101E3000060C75C0913209F076C0833289F4888D22
:101E400090E0982F88272F89822BA0E0B0E0809324
:101E5000040190930501A0930601B09307015FC0B0
:101E6000803269F48091E80082FFFCCF67E088E06F
:101E700091E00E942D0C8BEF8093E80006C0823227
:101E800009F04DC08F8980930F018091DC01882378
:101E900019F0EEEFFAE002C0E0E0F8E0809108010E
:101EA00090910901A0910A01B0910B01803B9440EF
:101EB000A105B10509F07BC080910F0180FF93C09F
:101EC00076C00E94D105DC0112960D911C911397EA
:101ED0000115110541F1D801ED91FC910190F081BE
:101EE000E02DBE016B5E7F4FC8010995811117C0BF
:101EF000F80100851185ECCF113009F44EC0133084
:101F000091F48F89882309F445C0823081F440E838
:101F100062E184EA91E00E94C90B882321F08EEFF0
:101F20008093E80079C081E28093EB0075C0813036
:101F300029F440E868E08BE991E0EDCF833099F730
:101F40000E94D105DC011296ED90FC9013978E0152
:101F50000F5F1F4F6801E114F10479F0D701ED9193
:101F6000FC910680F781E02DB801C7010995080FA3
:101F7000111DF701E084F184EECFD8011C92F60127
:101F800001900020E9F73197BF016C197D0940E00D
:101F9000C601C1CF65E871E002C069E871E0611572
:101FA000710509F2FB01449150E080E840CF0FB683
:101FB000F894A895809160008861809360001092E9
:101FC00060000FBEA895EE3F2AE0F20739F080913D
:101FD000FE0A9091FF0A91838083A1CF1092FF0A9D
:101FE0001092FE0A9CCFEE3F8AE0F80731F0808124
:101FF00091819093FF0A8093FE0A87E797E7918388
:1020000080839BE088E10FB6F894A89580936000E8
:102010000FBE9093600083CF6C960FB6F894DEBF2E
:102020000FBECDBFDF91CF91FF91EF91BF91AF91E7
:102030009F918F917F916F915F914F913F912F91E0
:102040001F910F91FF90EF90DF90CF900F900FBEF8
:102050000F901F9018951F920F920FB60F92112498
:102060002F933F938F939F93AF93BF93EF93FF93E0
:1020700080915E0490915F04A0916004B09161042E
:10208000892B8A2B8B2B51F180915B04E0915C04AE
:10209000F0915D0490818927808380915E04909106
:1020A0005F04A0916004B0916104181619061A0625
:1020B0001B064CF580915E0490915F04A091600432
:1020C000B09161040197A109B10980935E049093D6
:1020D0005F04A0936004B093610415C08091710007
:1020E0008D7F8093710090915B04E0915C04F0918E
:1020F0005D048081282F30E0892F90E080959095B5
:10210000822393238083FF91EF91BF91AF919F91A1
:102110008F913F912F910F900FBE0F901F901895A8
:102120006115710579F0FB0101900020E9F7319705
:10213000AF01461B570BDC01ED91FC910280F3814E
:10214000E02D099480E090E008950C9490101F9287
:102150000F920FB60F9211242F933F934F935F93DB
:102160006F937F938F939F93AF93BF93EF93FF935F
:102170008FEC94E00E944208FF91EF91BF91AF91E4
:102180009F918F917F916F915F914F913F912F918F
:102190000F900FBE0F901F9018951F920F920FB6C1
:1021A0000F9211242F938F939F93EF93FF93E091BE
:1021B000DF04F091E0048081E091E504F091E60411
:1021C00082FD12C090818091E8048F5F8F7320910F
:1021D000E904821751F0E091E804F0E0E153FB4F8D
:1021E000958F8093E80401C08081FF91EF919F91CA
:1021F0008F912F910F900FBE0F901F9018953FB7A2
:10220000F8948091A0069091A106A091A206B091A9
:10221000A30626B5A89B05C02F3F19F00196A11D66
:10222000B11D3FBFBA2FA92F982F8827820F911D6C
:10223000A11DB11DBC01CD0142E0660F771F881FB3
:10224000991F4A95D1F708958F929F92AF92BF92AE
:10225000CF92DF92EF92FF926B017C010E94FF1000
:102260004B015C01C114D104E104F104F1F00E94BE
:10227000FF10DC01CB0188199909AA09BB09883E26
:102280009340A105B10570F321E0C21AD108E1081D
:10229000F10888EE880E83E0981EA11CB11CC114C1
:1022A000D104E104F10419F7DDCFFF90EF90DF9046
:1022B000CF90BF90AF909F908F9008952FB7F894D4
:1022C00060919C0670919D0680919E0690919F065C
:1022D0002FBF08951F920F920FB60F9211242F93C4
:1022E0003F938F939F93AF93BF9380919C06909160
:1022F0009D06A0919E06B0919F0630919B0623E01B
:10230000230F2D3720F40196A11DB11D05C026E82D
:10231000230F0296A11DB11D20939B0680939C065E
:1023200090939D06A0939E06B0939F068091A00671
:102330009091A106A091A206B091A3060196A11DBD
:10234000B11D8093A0069093A106A093A206B0931E
:10235000A306BF91AF919F918F913F912F910F90C5
:102360000FBE0F901F901895CF93DF9300D0CDB77D
:10237000DEB7789484B5826084BD84B5816084BD05
:1023800085B5826085BD85B5816085BD80916E0013
:10239000816080936E001092810080918100826044
:1023A0008093810080918100816080938100809181
:1023B0008000816080938000809191008260809392
:1023C00091008091910081608093910080919000B4
:1023D0008160809390008091C10084608093C100EF
:1023E0008091C10082608093C1008091C1008160B2
:1023F0008093C1008091C30081608093C30080916D
:10240000C00082608093C0008091C2008160809390
:10241000C20080917A00846080937A0080917A0073
:10242000826080937A0080917A00816080937A0044
:1024300080917A00806880937A0010925A041092FA
:10244000DE011092DD018091D70081608093D7007A
:1024500080EA8093D80089B5806189BD89B58260A2
:1024600089BD09B400FEFDCF61E070E080E090E03E
:102470000E9424118091D8008F7C80618093D800C5
:102480008091E000807F8093E0008091E1008E7E6B
:102490008093E1008DE08093E200559A209AEEEF60
:1024A000FFE7859194918B3F9C4D19F481E08093D7
:1024B000DC0185E00E944E0288EB91E00E946D02F3
:1024C00068EE73E080E090E00E9424110E944806CC
:1024D0008FEF9FEF9093790580937805E091DF046B
:1024E000F091E00482E08083E091DB04F091DC0471
:1024F0001082E091DD04F091DE0483E3808310928A
:10250000E704E091E304F091E40486E08083E09145
:10251000E104F091E204808180618083E091E10434
:10252000F091E204808188608083E091E104F09181
:10253000E204808180688083E091E104F091E2040C
:1025400080818F7D808310928404109263041092A6
:1025500062041092AD041092CE041092AB0481E09C
:102560008093AA041092850461E082E00E94E50550
:1025700061E083E00E94E5058091B9008E7F809341
:10258000B9008091B9008D7F8093B90088E4809371
:10259000B80085E48093BC006FEF80E00E94E20108
:1025A0006FEF81E00E94E20161E087E00E945E053A
:1025B00061E086E00E945E0561E085E00E945E05C4
:1025C00061E084E00E945E0561E083E00E945E05B8
:1025D00061E082E00E945E0561E081E00E945E05AC
:1025E00061E080E00E945E0561E087E00E94FE01FC
:1025F00061E086E00E94FE0161E085E00E94FE014C
:1026000061E084E00E94FE0161E083E00E94FE013F
:1026100061E082E00E94FE0161E081E00E94FE0133
:1026200061E080E00E94FE0160E088E00E945E05BB
:1026300060E089E00E945E0560E08AE00E945E053D
:1026400060E08BE00E945E0560E08CE00E945E0529
:1026500060E08DE00E945E0588E00E94400589E010
:102660000E9440058AE00E9440058BE00E944005E0
:102670008CE00E9440058DE00E94400560E08EE005
:102680000E945E058EE00E94400560E08FE00E949F
:102690005E058FE00E9440058DE00E944E0240E4FE
:1026A000A42E41E0B42EE12CF12C56E0C52E772467
:1026B0007394F501D1905F0160E08D2D0E94FE01C1
:1026C00010920F03CE9C4001CF9C900C112460907F
:1026D0000F03F5E0F615B0F0062D10E0F801E65C0A
:1026E000FE4F80810E943B02080D191DF801E15246
:1026F000FD4F811102C0708201C01082639460920C
:102700000F03E5CF61E08D2D0E94FE012FEFE21A4D
:10271000F20A88E0E816F10461F68EE00E943B02BE
:10272000809357048FE00E943B02809355048EE013
:102730000E943B0281110CC088EE93E00E946D0262
:1027400060EB74E080E090E00E9424110E94480653
:102750008FE00E943B0281110CC080ED97E00E9447
:102760006D0260EB74E080E090E00E9424110E9412
:1027700048061092FF0181E08093400283E080933D
:10278000410289E08093420289E18093430281E122
:10279000809344028BE0809345028BE18093460254
:1027A00083E1809347028AE0809348028AE1809324
:1027B000490285E080934A0287E080934B028DE0D6
:1027C00080934C028BE380934D0285E180934E020F
:1027D0008FE080934F028FE18093500287E18093D6
:1027E00051028EE0809352028EE18093530285E283
:1027F0008093540287E2809355028AE380935602C5
:102800008DE2809357028DE38093580285E3809395
:1028100059020E94000B84E78093100385E00E9418
:102820004E0280E00E94A00A8D3609F06DC08093B0
:10283000100385E091E00E946D026DE770E080E09A
:1028400090E00E94241186E291E00E946D026DE703
:1028500070E080E090E00E94241189E491E00E9401
:102860006D026DE770E080E090E00E9424118DE53C
:1028700091E00E946D026DE770E080E090E00E94C0
:10288000241188E891E00E946D026DE770E080E01D
:1028900090E00E94241188EB91E00E946D026DE7A8
:1028A00070E080E090E00E9424118DEE91E00E94A3
:1028B0006D026DE770E080E090E00E9424110E94BC
:1028C000480681E00E94A00A8136F1F464EF71E0CD
:1028D00080E090E00E94241182E090E09093020159
:1028E0008093010188EE93E00E946D0264EF71E035
:1028F00080E090E00E9424110E94480668EC70E09D
:1029000080E090E00E94241180E00E94A00A8B36B3
:1029100001F5809310038FEF9FEF909379058093DB
:10292000780588E891E00E946D0268EE73E080E02F
:1029300090E00E9424110E94480688EB91E00E94DA
:102940006D0268EE73E080E090E00E9424110E9426
:10295000480680E00E94A00A843691F58093100317
:1029600089E491E00E946D0268EE73E080E090E0FF
:102970000E9424110E94480686E291E00E946D02A6
:1029800068EE73E080E090E00E9424110E94480607
:1029900085E091E00E946D0268EE73E080E090E0D7
:1029A0000E9424110E94480686E291E00E946D0276
:1029B00068EE73E080E090E00E9424110E944806D7
:1029C00080911003843791F48FEF9FEF90937905F6
:1029D000809378058DE591E00E946D0268EE73E0CA
:1029E00080E090E00E9424110E94480680E00E944E
:1029F000A00A833709F006C1809310038FEF9FEF81
:102A0000909379058093780564E38CE695E00E94C5
:102A10007B0685E091E00E946D0284E390E00E94D5
:102A2000DD0164E68CE695E00E947B0684E690E09A
:102A30000E94DD016DE770E080E090E00E942411CB
:102A400063E28CE695E00E947B0683E290E00E94C0
:102A5000DD0186E291E00E946D0262E78CE695E07E
:102A60000E947B0682E790E00E94DD016DE770E046
:102A700080E090E00E94241163E28CE695E00E94E1
:102A80007B0683E290E00E94DD0189E491E00E94F0
:102A90006D026DE68CE695E00E947B068DE690E087
:102AA0000E94DD016DE770E080E090E00E9424115B
:102AB00063E28CE695E00E947B0683E290E00E9450
:102AC000DD018DE591E00E946D0266E68CE695E001
:102AD0000E947B0686E690E00E94DD016DE770E0D3
:102AE00080E090E00E94241163E28CE695E00E9471
:102AF0007B0683E290E00E94DD0188E891E00E947D
:102B00006D0263E78CE695E00E947B0683E790E028
:102B10000E94DD016DE770E080E090E00E942411EA
:102B200063E28CE695E00E947B0683E290E00E94DF
:102B3000DD0188EB91E00E946D026CE68CE695E089
:102B40000E947B068CE690E00E94DD016DE770E05C
:102B500080E090E00E94241163E28CE695E00E9400
:102B60007B0683E290E00E94DD018DEE91E00E9401
:102B70006D0269E68CE695E00E947B0689E690E0AE
:102B80000E94DD016DE770E080E090E00E9424117A
:102B900063E28CE695E00E947B0683E290E00E946F
:102BA000DD010E94480681E00E94A00A8136F1F40E
:102BB00064EF71E080E090E00E94241182E090E0F8
:102BC000909302018093010188EE93E00E946D02D0
:102BD00064EF71E080E090E00E9424110E944806BA
:102BE00068EC70E080E090E00E94241185E091E0C4
:102BF0000E946D026DE770E080E090E00E94241179
:102C00000E94480635E0432E512C80913F048823D2
:102C100009F463C0E9EDF3E0FA83E98321E1E22EF0
:102C200023E0F22E00E010E0AE014F5F5F4F68E955
:102C300071E089819A810E948220009739F0F70122
:102C4000819391937F010F5F1F4FEECF01301105EC
:102C500089F480913D0490913E04039709F0B5C634
:102C60008091D903873409F0B0C68AED93E00E94C1
:102C7000EA0AABC60230110571F4809113039091FA
:102C80001403E0911103F091120320812734B9F469
:102C90000E94EA0A14C00330110589F480911303DD
:102CA000909114036091150370911603E091110344
:102CB000F09112032081233511F40E94910940E024
:102CC00050E062EC71E080E296E00E94490D1092C3
:102CD0003E0410923D0410923F0480911003883707
:102CE00009F0CBC0E0914A04F0914B04EE0FFF1FB6
:102CF000E25EFE4F808191810E946D020E945E1112
:102D000060934C0470934D0480934E0490934F0451
:102D10000E945E11609346047093470480934804B8
:102D2000909349040E945E11A0914A04B0914B0413
:102D300000914C0410914D0420914E0430914F04A9
:102D4000AB01BC01401B510B620B730BFD01EE0F7D
:102D5000FF1FEE0FFF1FE851FA4F00811181228102
:102D600033814017510762077307A8F1CD0101961F
:102D70008E3091052CF490934B0480934A0404C048
:102D800010924B0410924A04E0914A04F0914B04D3
:102D9000EE0FFF1FE25EFE4F008111818091400423
:102DA00090914104892B49F40115110521F0C801C6
:102DB0000E946D0202C00E944806109343040093D3
:102DC00042040E945E1160934C0470934D04809302
:102DD0004E0490934F040E945E11A0914404B09160
:102DE0004504009146041091470420914804309115
:102DF0004904AB01BC01401B510B620B730BFD017D
:102E0000EE0FFF1FEE0FFF1FE853FA4F00811181F5
:102E100022813381401751076207730708F482CF7C
:102E2000CD010196843091052CF490934504809354
:102E3000440404C01092450410924404E0914404F8
:102E4000F0914504EE0FFF1FEA5EFE4F00811181F5
:102E50000115110511F0C80109C08091420490913B
:102E60004304009719F40E94480602C00E946D02B4
:102E700010934104009340044BCF843609F0AEC058
:102E8000F0E4EF2EF1E0FF2E11E4A6E09A2E882464
:102E90008394C701805491405C01F70101917F0147
:102EA00060E0802F0E94FE0110920F039A9C600147
:102EB0009B9CD00C112480910F03863008F046C0F3
:102EC000A82EB12CF501E65CFE4F80810E943B02EA
:102ED000F601EA0DFB1DE152FD4F811118C0808102
:102EE00081112EC0808265E971E08CE695E00E9438
:102EF000A510612F8CE695E00E947B0680910F0360
:102F000090E001960E94C9048AE991E017C080818F
:102F10008130B1F4108265E971E08CE695E00E94A1
:102F2000A510612F8CE695E00E947B0680910F032F
:102F300090E001960E94C9048DE991E00E94CE01C3
:102F400080910F038F5F80930F03B5CF61E0802FD7
:102F50000E94FE011F5F193409F09BCF8EE00E9492
:102F60003B0280935804909157049817A1F060EAAF
:102F700071E08CE695E00E94A5108091580461E311
:102F8000681B8CE695E00E947B060E94C801809138
:102F90005804809357048FE00E943B0280935604AC
:102FA000909155049817A1F068EA71E08CE695E0DD
:102FB0000E94A5108091560461E3681B8CE695E0A1
:102FC0000E947B060E94C80180915604809355049C
:102FD0006AE070E080E090E00E942411809110038C
:102FE0008B3631F0809110038D3609F0BCC0B6C02D
:102FF0008EE00E943B028111F5CF0E94000B6CEB2A
:1030000072E080E090E00E9424118EE00E943B027A
:1030100081112AC00E94A00A0E94BE0481E00E9481
:10302000A00A0E94BE0482E00E94A00A0E94BE0480
:1030300083E00E94A00A0E94BE0484E00E94A00ACD
:103040000E94BE0485E00E94A00A0E94BE0486E0A1
:103050000E94A00A0E94BE0487E00E94A00A0E946B
:10306000BE040E94C8016AC080E00E94A00A0E94BB
:10307000BE040E94C80168E572E080E090E00E9412
:10308000241181E00E94A00A0E94BE040E94C8018F
:1030900068E572E080E090E00E94241182E00E94E6
:1030A000A00A0E94BE040E94C80168E572E080E0A8
:1030B00090E00E94241183E00E94A00A0E94BE04B6
:1030C0000E94C80168E572E080E090E00E9424114F
:1030D00084E00E94A00A0E94BE040E94C80168E524
:1030E00072E080E090E00E94241185E00E94A00A36
:1030F0000E94BE040E94C80168E572E080E090E092
:103100000E94241186E00E94A00A0E94BE040E9430
:10311000C80168E572E080E090E00E94241187E039
:103120000E94A00A0E94BE040E94C8010E94C80119
:1031300068E572E080E090E00E9424116CE271E0AA
:1031400080E090E00E9424118EE00E943B028111F9
:1031500049CF6EE170E080E090E0F4CF8EE00E9415
:103160003B02882331F080911003833709F054C269
:103170004EC20E94000B84E090E09093270680935B
:1031800026066CEB72E080E090E00E9424118EE055
:103190000E943B0281115DC11092540410925304AD
:1031A00088EE93E00E946D0268EC70E080E090E0B1
:1031B0000E9424110E94480664EF71E080E090E0D4
:1031C0000E9424118EE00E943B02811118C081E010
:1031D00090E0909354048093530480ED97E00E9414
:1031E0006D0268EC70E080E090E00E9424110E9483
:1031F000480664EF71E080E090E00E9424110E9494
:103200005E11312C49E4642E7724739456E2A52E86
:10321000BB24B39465E0862E992493947AE0E72E3C
:1032200072E0F72EE4E0CE2ED12C0E94000B832D0D
:103230000E940C0A8334C9F4909252048092510483
:1032400080910101909102010297E9F53320D9F1B3
:103250001FEF130D812F0E940C0A823409F002C661
:10326000F0925204E0925104FDC5843429F4B092E6
:103270005204A092510427C0853429F4709252045C
:103280006092510420C0863419F48DE591E009C0A4
:10329000873419F4E8E8F1E00DC0813439F488EBA3
:1032A00091E090935204809351040DC0823439F41C
:1032B000EDEEF1E0F0935204E093510404C010925B
:1032C000520410925104809151049091520400973D
:1032D00039F120912606309127062430310569F016
:1032E0002530310541F02330310549F497FD019631
:1032F0009595879502C0880F991F0E946D02832DB6
:103300000E94C5090A97BC01990F880B990B0E946E
:1033100024110E9448066AE070E080E090E00BC053
:10332000832D0E94A00A803289F18D3639F460EA3B
:103330007FE080E090E00E94241128C0853729F4C6
:1033400060ED77E080E090E0F6CF863729F468EE14
:1033500073E080E090E0EFCF883729F464EF71E00C
:1033600080E090E0E8CF8091010190910201029706
:1033700009F03CC3832D0E945B0B883309F07DC5A7
:10338000E3E0F0E0F0932706E093260680915304F3
:1033900090915404892B11F4339444C08EE00E9420
:1033A0003B02813039F464E170E080E090E00E94FB
:1033B0002411F4CF8EE00E943B02811133C033947C
:1033C000832D0E94A00A803209F4312C64EF71E051
:1033D00080E090E00E9424118EE00E943B02811167
:1033E00013C080ED97E00E946D0268EC70E080E011
:1033F00090E00E9424110E944806109254041092FA
:10340000530400E010E002C001E010E08EE00E94F2
:103410003B02811109C064E170E080E090E00E940D
:103420002411F4CF01E010E0F7E0F31528F4D09276
:103430002706C0922606312C8EE00E943B028111A5
:1034400003C00E944806D3C00130110509F4EDCE37
:10345000CEC000E010E0FDE52F2E33243394A6E229
:103460006A2E77247394B5E08B2E992493948AE086
:10347000E82E82E0F82E94E0A92EB12CD02E802FD9
:103480000E940C0A8334E1F4909252048092510419
:103490008091010190910201029709F03FC001154E
:1034A0001105E1F1CC24CA94C00E8C2D0E940C0AA7
:1034B000823409F0F7C4F0925204E0925104F2C44D
:1034C000843429F4709252046092510427C08534E8
:1034D00019F489E491E010C0863429F43092520442
:1034E000209251041BC0873419F4E8E8F1E00DC0C4
:1034F000813439F488EB91E0909352048093510425
:103500000DC0823439F4EDEEF1E0F0935204E09313
:10351000510404C01092520410925104809151043D
:1035200090915204009739F1209126063091270698
:103530002430310569F02530310541F02330310563
:1035400049F497FD01969595879502C0880F991FBC
:103550000E946D028D2D0E94C5090A97BC01990F2A
:10356000880B990B0E9424110E9448066AE070E0C3
:1035700080E090E00BC08D2D0E94A00A803289F17E
:103580008D3639F460EA7FE080E090E00E942411FB
:1035900028C0853729F460ED77E080E090E0F6CF31
:1035A000863729F468EE73E080E090E0EFCF88374B
:1035B00029F464EF71E080E090E0E8CF80910101B0
:1035C00090910201029709F01EC28D2D0E945B0BA3
:1035D000883309F072C483E090E0909327068093CB
:1035E00026060F5F1F4F0830110509F047CF6CE228
:1035F00071E080E090E00E9424118EE00E943B0286
:103600008111B1CD6EE170E080E090E0F4CF8EE00A
:103610000E943B02882331F080911003843709F027
:10362000D1C1B6C10E94000B6CEB72E080E090E06B
:103630000E9424118EE00E943B028111DFC088EEBF
:1036400093E00E946D0268EC70E080E090E00E94E0
:1036500024110E94480664EF71E080E090E00E942F
:1036600024110E945E1164E38CE695E00E947B06C3
:1036700084E390E00E94DD0110E005E4B9E6FB2E52
:103680008CE6E82E93E7B92E26E6A22E3DE6932E91
:1036900042E7842E54E6752E64E0C62ED12C0E949B
:1036A000000B812F0E940C0A833419F470920001E0
:1036B00020C0843419F4809200011BC0853419F4B1
:1036C0009092000116C0863419F4A092000111C036
:1036D000873419F4B09200010CC0813419F4E092DF
:1036E000000107C0823419F4F092000102C0009377
:1036F0000001609100016534E1F08CE695E00E94E4
:103700007B06609100018FEC94E00E94E00C812F19
:103710000E94C509BC01990F880B990B0E942411C6
:1037200063E28CE695E00E947B0683E290E00E94D3
:10373000DD01812F0E94A00A803209F44AC08D3633
:1037400029F460EA7FE080E090E006C0853739F434
:1037500060ED77E080E090E00E9424113AC0863767
:1037600029F468EE73E080E090E0F6CF883729F422
:1037700064EF71E080E090E0EFCF809101019091E3
:103780000201029731F5812F0E945B0B883371F49F
:10379000E3E0F0E0F0932706E093260663E38CE68F
:1037A00095E00E947B0683E390E011C0812F0E9488
:1037B0005B0B803109F096C3D0922706C092260693
:1037C00064E38CE695E00E947B0684E390E00E942F
:1037D000DD011F5F183050F064E38CE695E00E9435
:1037E0007B0684E390E00E94DD0110E08EE00E9401
:1037F0003B02811154CF0E944806BAC064E38CE6B4
:1038000095E00E947B0684E390E00E94DD0100E0E9
:1038100010E025E4E22E39E6D32E4CE6C42E53E721
:10382000952E66E6862E7DE6772EE2E76E2EF4E68E
:103830003F2EA4E0AA2EB12CF02E802F0E940C0A5D
:10384000833419F43092000120C0843419F460925A
:1038500000011BC0853419F47092000116C0863433
:1038600019F48092000111C0873419F4909200017C
:103870000CC0813419F4C092000107C0823419F4DD
:10388000D092000102C0E092000160910001653415
:1038900091F08CE695E00E947B06609100018FEC30
:1038A00094E00E94E00C8F2D0E94C509BC01990F85
:1038B000880B990B25C08F2D0E94A00A833609F032
:1038C00046C00115110541F581E00E94A00A80372C
:1038D00009F0A6C060E58CE695E00E947B0664E6F0
:1038E0008CE695E00E947B0680E590E00E94DD0179
:1038F00084E690E00E94DD0164EF71E080E090E0FA
:103900000E94241163E28CE695E00E947B0683E22C
:1039100090E00E94DD0126C080910101909102019A
:10392000029709F01BC18F2D0E945B0B883309F0B1
:10393000EBC283E090E0909327068093260663E332
:103940008CE695E00E947B0683E390E0E2CF803234
:1039500049F08D3609F0ECC060EA7FE080E090E04D
:103960000E9424110F5F1F4F0830110509F064CF2A
:103970006CE271E080E090E00E9424118EE00E94F1
:103980003B02811149CE6EE170E080E090E0F4CF1F
:103990008FE00E943B02811105C080915004882372
:1039A00009F41EC28FE00E943B02813029F480910D
:1039B0005004813009F424C28EE00E943B02882327
:1039C00009F4D9C00E94710620C980913D049091EC
:1039D0003E04049709F073C98091D903833509F037
:1039E0006EC96BED73E08AED93E067C988EB9BE0ED
:1039F0000E946D0268EC70E080E090E00E9424116B
:103A00000E944806C3CC88EB9BE00E946D0268ECE4
:103A100070E080E090E00E9424110E944806E1CD11
:103A2000863669F466E48CE695E00E947B0664E6DF
:103A30008CE695E00E947B0686E490E057CF8F36B7
:103A400069F46FE48CE695E00E947B0664E68CE600
:103A500095E00E947B068FE490E048CF813669F4C0
:103A600061E48CE695E00E947B0664E68CE695E0D6
:103A70000E947B0681E490E039CF833669F463E4E9
:103A80008CE695E00E947B0664E68CE695E00E9459
:103A90007B0683E490E02ACF833769F463E58CE604
:103AA00095E00E947B0664E68CE695E00E947B062A
:103AB00083E590E01BCF883769F468E58CE695E0F4
:103AC0000E947B0664E68CE695E00E947B0688E512
:103AD00090E00CCF873669F467E48CE695E00E94AD
:103AE0007B0664E68CE695E00E947B0687E490E026
:103AF000FDCE863769F466E58CE695E00E947B068C
:103B000064E68CE695E00E947B0686E590E0EECECA
:103B1000843709F027CF64E58CE695E00E947B06A8
:103B200064E68CE695E00E947B0684E590E0DECEBC
:103B3000853729F460ED77E080E090E011CF86379B
:103B400029F468EE73E080E090E00ACF883709F04E
:103B5000E3CE64EF71E080E090E002CF88EB9BE081
:103B60000E946D0268EC70E080E090E00E942411F9
:103B70000E944806F7CE0E94000B6CEB72E080E0DA
:103B800090E00E9424118EE00E943B02813009F0F7
:103B900086C097E0F92E8F2D0E945B0B882309F4D5
:103BA0003EC10FEF1FEFE12C8E2D0E94A00A86363A
:103BB00089F09EE9980F933068F08C3659F082377F
:103BC00049F091E9980F923028F0873719F084373F
:103BD00009F02BC1E394FE1438F70F3FFFEF1F07E6
:103BE000C9F183E990E00E946D0264EF71E080E02A
:103BF00090E00E9424110E94480682E890E00E9412
:103C00006D0264EF71E080E090E00E9424110E9458
:103C1000480668EE73E080E090E00E942411E12CF9
:103C2000F12C80E193E00E946D0264EF71E080E08E
:103C300090E00E9424110E94480664EF71E080E049
:103C400090E00E9424112FEFE21AF20A0E151F05D0
:103C500044F7B6C088E891E00E946D0264EF71E01D
:103C600080E090E00E9424110E94480688EB91E0D9
:103C70000E946D0264EF71E080E090E00E942411E8
:103C80000E9448068DEE91E00E946D0264EF71E0A3
:103C900080E090E00E9424110E94480691C000E05C
:103CA00010E0DD24D394802F0E94A00A863619F4F8
:103CB00060EB71E004C0823649F469ED71E08FEC8D
:103CC00094E00E94A5100E9467206EC08C3619F403
:103CD00062EB71E0F4CF823719F467EC71E0EFCF5B
:103CE0008F3619F464EB71E0EACF873719F466EB8D
:103CF00071E0E5CF833619F468EB71E004C08436D7
:103D000069F46AEB71E08FEC94E00E94A51068EE14
:103D100073E080E090E00E94241146C0803729F5CE
:103D200082E3E82EF12C64E670E080E090E00E94EF
:103D300024118FE00E943B0281117AC080915004CF
:103D4000811176C06CEB71E08FEC94E00E94A510BD
:103D500064E670E080E090E00E942411D09250046C
:103D600081E0E81AF108F9F61FC08437E9F40E94EF
:103D7000000B04EF11E0C8010E946D026CE370E0DB
:103D800080E090E00E9424110E944806025E1F4FCE
:103D9000003293E0190779F764EF71E080E090E07A
:103DA0000E9424110FEF1FEF0F5F1F4F0830110506
:103DB0000CF479CF68E572E080E090E00E94241175
:103DC0006CE271E080E090E00E9424118EE00E949D
:103DD0003B028111F7CD6EE170E080E090E0F4CF1E
:103DE0006CEB71E08FEC94E00E94A51064E670E04B
:103DF00080E090E00E94241181E080935004DCCDAB
:103E00006EEB71E08FEC94E00E94A51064E670E028
:103E100080E090E00E94241110925004CDCDFA94DD
:103E20009FEFF912B8CEF12CBCCE0E2D10E0D2CE01
:103E30008FE00E943B02813009F092CF80915004C4
:103E4000813009F08DCF6EEB71E08FEC94E00E9431
:103E5000A51064E670E080E090E00E9424111092CA
:103E600050047ECF812F0E940C0A813409F02BCAA6
:103E7000F0925204E092510426CA832D0E945B0BFB
:103E8000803159F0832D0E945B0B883209F0AECD52
:103E9000509227064092260679CAD0922706C092F1
:103EA000260674CA8C2D0E940C0A813409F036CB88
:103EB000F0925204E092510431CB8D2D0E945B0BA5
:103EC000803159F08D2D0E945B0B883209F09BCD1B
:103ED000509227064092260684CBB0922706A092E5
:103EE00026067FCB812F0E945B0B883209F071CCB4
:103EF000509227064092260665E38CE695E00E94E4
:103F00007B0685E390E063CC8F2D0E945B0B8031B4
:103F100091F08F2D0E945B0B883209F01FCE5092DA
:103F200027064092260665E38CE695E00E947B0614
:103F300085E390E0EECCB0922706A092260664E3DB
:103F40008CE695E00E947B0684E390E0E2CCEFEC07
:103F5000F4E01382128288EE93E0A0E0B0E0848364
:103F60009583A683B7832CE431E0318320832DEC45
:103F700030E0358724872CEC30E03787268728EC23
:103F800030E0318B208B29EC30E0338B228B2AEC14
:103F900030E0358B248B2EEC30E0378B268B118E66
:103FA000128E138E148EECE6F5E013821282848357
:103FB0009583A683B7832EE531E0318320832FEFED
:103FC0003FEF35872487ECEBF5E013821282848380
:103FD0009583A683B78380E791E09183808384E013
:103FE00090E09093270680932606E0E2F6E01182A7
:103FF0001082138212821582148240E050E062EC3B
:1040000071E0CF010E94490DE8EEF5E040E753E092
:1040100060E070E0408351836283738388E790E0BF
:10402000A0E0B0E084839583A683B783408751875F
:104030006287738784879587A687B787408B518B64
:10404000628B738B848B958BA68BB78B408F518F34
:10405000628F738F848F958FA68FB78F40A351A3E4
:1040600062A373A384A395A3A6A3B7A340A751A754
:1040700062A773A784A795A7A6A7B7A740AB51AB24
:1040800062AB73AB84AB95ABA6ABB7ABE8ECF5E03A
:104090004EE150E060E070E04083518362837383BF
:1040A0008AEC93E0A0E0B0E084839583A683B78395
:1040B000408751876287738784879587A687B787EC
:1040C000089580912006909121060C94BC218FECDC
:1040D00094E00E94960C18161906CCF78FEC94E029
:1040E0000E94740C863499F788EE93E00E946D026A
:1040F00068EC70E080E090E00E9424110E94480685
:1041000081E00895FA01A191B081009719F4109708
:10411000E1F0CD01DC01CD010D90002011F4C001D2
:1041200013C0FB012191222319F02015D9F7F3CFF9
:10413000FB012191201519F41E92119606C022232D
:10414000C1F70D900020A1F7D001FA01A193B0832F
:1041500008952F923F924F925F926F927F928F922B
:104160009F92AF92BF92CF92DF92EF92FF920F9306
:104170001F93CF93DF93CDB7DEB7CA1BDB0B0FB610
:10418000F894DEBF0FBECDBF09942A8839884888CD
:104190005F846E847D848C849B84AA84B984C88463
:1041A000DF80EE80FD800C811B81AA81B981CE0F5A
:1041B000D11D0FB6F894DEBF0FBECDBFED0108953F
:1041C000A1E21A2EAA1BBB1BFD010DC0AA1FBB1F1B
:1041D000EE1FFF1FA217B307E407F50720F0A21B8D
:1041E000B30BE40BF50B661F771F881F991F1A94FA
:1041F00069F760957095809590959B01AC01BD0124
:10420000CF010895052E97FB1EF400940E941921FA
:1042100057FD07D00E94E02007FC03D04EF40C9419
:10422000192150954095309521953F4F4F4F5F4F45
:10423000089590958095709561957F4F8F4F9F4F12
:104240000895EE0FFF1F0590F491E02D0994CF9390
:10425000DF938230910510F482E090E0E091A606B1
:10426000F091A70620E030E0C0E0D0E0309711F1F7
:104270004081518148175907C0F04817590761F428
:1042800082819381209719F09B838A832BC090931E
:10429000A7068093A60626C02115310519F04217FE
:1042A000530718F49A01BE01DF01EF010280F38188
:1042B000E02DDCCF2115310509F1281B390B243005
:1042C000310590F412968D919C91139761157105AB
:1042D00021F0FB019383828304C09093A70680930F
:1042E000A606FD01329644C0FD01E20FF31F819343
:1042F0009193225031092D933C933AC02091A4060A
:104300003091A506232B41F4209112013091130125
:104310003093A5062093A40620911001309111013D
:104320002115310541F42DB73EB74091140150914C
:104330001501241B350BE091A406F091A506E217A8
:10434000F307A0F42E1B3F0B2817390778F0AC01B8
:104350004E5F5F4F2417350748F04E0F5F1F509395
:10436000A5064093A4068193919302C0E0E0F0E09B
:10437000CF01DF91CF9108950F931F93CF93DF93D8
:10438000009709F48CC0FC013297138212820091CD
:10439000A6061091A7060115110581F4208131812F
:1043A000820F931F2091A4063091A5062817390784
:1043B00079F5F093A506E093A40671C0D80140E01A
:1043C00050E0AE17BF0750F412962D913C91139711
:1043D000AD012115310509F1D901F3CF9D01DA01B4
:1043E0003383228360817181860F971F8217930721
:1043F00069F4EC0128813981260F371F2E5F3F4F6A
:10440000318320838A819B8193838283452B29F486
:10441000F093A706E093A60642C01396FC93EE9392
:104420001297ED01499159919E01240F351FE21712
:10443000F30771F480819181840F951F0296119684
:104440009C938E938281938113969C938E93129763
:10445000E0E0F0E0D80112968D919C9113970097BF
:1044600019F0F8018C01F6CF8D919C9198012E5F87
:104470003F4F820F931F2091A4063091A506281765
:10448000390769F4309729F41092A7061092A6060E
:1044900002C0138212821093A5060093A406DF9136
:1044A000CF911F910F910895A0E0B0E0EAE5F2E20C
:1044B0000C94AD20EC01009721F4CB010E94272140
:1044C000B8C0FC01E60FF71F9C0122503109E2172A
:1044D000F30708F4ACC0D9010D911C911197061790
:1044E0001707B0F00530110508F49FC0C801049704
:1044F0008617970708F499C002501109061B170B7D
:10450000019311936D937C93CF010E94BC218DC0C8
:104510005B01A01AB10A4C01800E911EA091A60663
:10452000B091A70640E050E0E12CF12C109709F47F
:104530004AC0A815B905D1F56D907C90119763011B
:1045400082E0C80ED11CCA14DB0480F1A3014A1911
:104550005B096A0182E0C80ED11C1296BC901297CA
:104560001396AC91B5E0CB16D10440F0B282A38390
:1045700051834083D9016D937C930AC00E5F1F4F16
:10458000C301800F911FF90191838083EB2DFA2FD6
:10459000E114F10431F0D7011396FC93EE931297D6
:1045A00044C0F093A706E093A6063FC08D919C916E
:1045B00011974817590708F4AC017D0112960D9028
:1045C000BC91A02DB3CF8091A4069091A50688152B
:1045D0009905E1F446175707C8F4809110019091AE
:1045E0001101009741F48DB79EB74091140150918D
:1045F0001501841B950BE817F907C8F4F093A5067D
:10460000E093A406F901718360830FC0CB010E947F
:1046100027217C01009759F0A801BE010E942323A5
:10462000CE010E94BC21C70104C0CE0102C080E0BF
:1046300090E0CDB7DEB7EEE00C94C92081E090E0C9
:10464000F8940C943323FB01DC0102C001900D921D
:1046500041505040D8F70895FB01DC0101900D92C4
:104660000020E1F7089510E0CDEDD0E004C0FE0198
:104670000E9421212196CE3DD107C9F7F894FFCFA2
:10468000200100FFFFFFFFFF00E10000000000002D
:104690000000A8068000A00F0000B80B0000050174
:1046A000000026010000490100005D0100008801B2
:1046B0000000B8010000ED0100000A09080D0C0B14
:1046C000070605040302010000000000E00C3A0C9C
:1046D000650C270D960C740C880C000000007B06FE
:1046E0007707FC0791069C0600081E0800000000E2
:1046F000440714077407E8060C07F806E9061E00CD
:104700007800E8030400000102030405060700C165
:10471000808100000045565420002C31002C3000D0
:10472000455654205A312C00455654205A322C00FC
:1047300057004100430045007A00780073006E0086
:104740000D0A004F4B204D44004F4B204D4B004F66
:0C4750004B204D4D004F4B204D540000FD
:00000001FF
